{
  "_format": "hh-sol-artifact-1",
  "contractName": "AIModelMarketplace",
  "sourceName": "contracts/AIModelMarketplace.sol",
  "abi": [
    {
      "inputs": [],
      "stateMutability": "nonpayable",
      "type": "constructor"
    },
    {
      "inputs": [
        {
          "internalType": "address",
          "name": "",
          "type": "address"
        }
      ],
      "name": "balances",
      "outputs": [
        {
          "internalType": "uint256",
          "name": "",
          "type": "uint256"
        }
      ],
      "stateMutability": "view",
      "type": "function"
    },
    {
      "inputs": [
        {
          "internalType": "uint256",
          "name": "modelId",
          "type": "uint256"
        }
      ],
      "name": "getModelDetails",
      "outputs": [
        {
          "internalType": "string",
          "name": "",
          "type": "string"
        },
        {
          "internalType": "string",
          "name": "",
          "type": "string"
        },
        {
          "internalType": "uint256",
          "name": "",
          "type": "uint256"
        },
        {
          "internalType": "address",
          "name": "",
          "type": "address"
        },
        {
          "internalType": "uint8",
          "name": "",
          "type": "uint8"
        }
      ],
      "stateMutability": "view",
      "type": "function"
    },
    {
      "inputs": [
        {
          "internalType": "string",
          "name": "name",
          "type": "string"
        },
        {
          "internalType": "string",
          "name": "description",
          "type": "string"
        },
        {
          "internalType": "uint256",
          "name": "price",
          "type": "uint256"
        }
      ],
      "name": "listModel",
      "outputs": [],
      "stateMutability": "nonpayable",
      "type": "function"
    },
    {
      "inputs": [],
      "name": "modelCount",
      "outputs": [
        {
          "internalType": "uint256",
          "name": "",
          "type": "uint256"
        }
      ],
      "stateMutability": "view",
      "type": "function"
    },
    {
      "inputs": [
        {
          "internalType": "uint256",
          "name": "",
          "type": "uint256"
        }
      ],
      "name": "models",
      "outputs": [
        {
          "internalType": "string",
          "name": "name",
          "type": "string"
        },
        {
          "internalType": "string",
          "name": "description",
          "type": "string"
        },
        {
          "internalType": "uint256",
          "name": "price",
          "type": "uint256"
        },
        {
          "internalType": "address",
          "name": "creator",
          "type": "address"
        },
        {
          "internalType": "uint8",
          "name": "rating",
          "type": "uint8"
        },
        {
          "internalType": "uint256",
          "name": "ratingCount",
          "type": "uint256"
        }
      ],
      "stateMutability": "view",
      "type": "function"
    },
    {
      "inputs": [],
      "name": "owner",
      "outputs": [
        {
          "internalType": "address",
          "name": "",
          "type": "address"
        }
      ],
      "stateMutability": "view",
      "type": "function"
    },
    {
      "inputs": [
        {
          "internalType": "uint256",
          "name": "modelId",
          "type": "uint256"
        }
      ],
      "name": "purchaseModel",
      "outputs": [],
      "stateMutability": "payable",
      "type": "function"
    },
    {
      "inputs": [
        {
          "internalType": "uint256",
          "name": "modelId",
          "type": "uint256"
        },
        {
          "internalType": "uint8",
          "name": "rating",
          "type": "uint8"
        }
      ],
      "name": "rateModel",
      "outputs": [],
      "stateMutability": "nonpayable",
      "type": "function"
    },
    {
      "inputs": [],
      "name": "withdrawFunds",
      "outputs": [],
      "stateMutability": "nonpayable",
      "type": "function"
    }
  ],
  "bytecode": "0x6080604052348015600f57600080fd5b5033600260006101000a81548173ffffffffffffffffffffffffffffffffffffffff021916908373ffffffffffffffffffffffffffffffffffffffff16021790555060006001819055506113f8806100686000396000f3fe6080604052600436106100865760003560e01c806331fc042f1161005957806331fc042f146101315780636a030ca9146101725780638da5cb5b146101b4578063c6a645fe146101df578063dc7468621461020a57610086565b806312ee1c0e1461008b5780631c788a9a146100b457806324600fc3146100dd57806327e235e3146100f4575b600080fd5b34801561009757600080fd5b506100b260048036038101906100ad9190610ae5565b610226565b005b3480156100c057600080fd5b506100db60048036038101906100d69190610ba9565b61034a565b005b3480156100e957600080fd5b506100f261043f565b005b34801561010057600080fd5b5061011b60048036038101906101169190610c47565b610540565b6040516101289190610c83565b60405180910390f35b34801561013d57600080fd5b5061015860048036038101906101539190610c9e565b610558565b604051610169959493929190610d68565b60405180910390f35b34801561017e57600080fd5b5061019960048036038101906101949190610c9e565b6106e5565b6040516101ab96959493929190610dc9565b60405180910390f35b3480156101c057600080fd5b506101c961085e565b6040516101d69190610e38565b60405180910390f35b3480156101eb57600080fd5b506101f4610884565b6040516102019190610c83565b60405180910390f35b610224600480360381019061021f9190610c9e565b61088a565b005b6001600081548092919061023990610e82565b91905055506040518060c001604052808481526020018381526020018281526020013373ffffffffffffffffffffffffffffffffffffffff168152602001600060ff1681526020016000815250600080600154815260200190815260200160002060008201518160000190816102af91906110d6565b5060208201518160010190816102c591906110d6565b506040820151816002015560608201518160030160006101000a81548173ffffffffffffffffffffffffffffffffffffffff021916908373ffffffffffffffffffffffffffffffffffffffff16021790555060808201518160030160146101000a81548160ff021916908360ff16021790555060a08201518160040155905050505050565b60018160ff1610158015610362575060058160ff1611155b6103a1576040517f08c379a0000000000000000000000000000000000000000000000000000000008152600401610398906111f4565b60405180910390fd5b60008060008481526020019081526020016000209050600181600401546103c89190611214565b8260ff1682600401548360030160149054906101000a900460ff1660ff166103f09190611248565b6103fa9190611214565b61040491906112b9565b8160030160146101000a81548160ff021916908360ff16021790555080600401600081548092919061043590610e82565b9190505550505050565b600260009054906101000a900473ffffffffffffffffffffffffffffffffffffffff1673ffffffffffffffffffffffffffffffffffffffff163373ffffffffffffffffffffffffffffffffffffffff16146104cf576040517f08c379a00000000000000000000000000000000000000000000000000000000081526004016104c690611336565b60405180910390fd5b6000479050600260009054906101000a900473ffffffffffffffffffffffffffffffffffffffff1673ffffffffffffffffffffffffffffffffffffffff166108fc829081150290604051600060405180830381858888f1935050505015801561053c573d6000803e3d6000fd5b5050565b60036020528060005260406000206000915090505481565b6060806000806000806000808881526020019081526020016000209050806000018160010182600201548360030160009054906101000a900473ffffffffffffffffffffffffffffffffffffffff168460030160149054906101000a900460ff168480546105c590610ef9565b80601f01602080910402602001604051908101604052809291908181526020018280546105f190610ef9565b801561063e5780601f106106135761010080835404028352916020019161063e565b820191906000526020600020905b81548152906001019060200180831161062157829003601f168201915b5050505050945083805461065190610ef9565b80601f016020809104026020016040519081016040528092919081815260200182805461067d90610ef9565b80156106ca5780601f1061069f576101008083540402835291602001916106ca565b820191906000526020600020905b8154815290600101906020018083116106ad57829003601f168201915b50505050509350955095509550955095505091939590929450565b600060205280600052604060002060009150905080600001805461070890610ef9565b80601f016020809104026020016040519081016040528092919081815260200182805461073490610ef9565b80156107815780601f1061075657610100808354040283529160200191610781565b820191906000526020600020905b81548152906001019060200180831161076457829003601f168201915b50505050509080600101805461079690610ef9565b80601f01602080910402602001604051908101604052809291908181526020018280546107c290610ef9565b801561080f5780601f106107e45761010080835404028352916020019161080f565b820191906000526020600020905b8154815290600101906020018083116107f257829003601f168201915b5050505050908060020154908060030160009054906101000a900473ffffffffffffffffffffffffffffffffffffffff16908060030160149054906101000a900460ff16908060040154905086565b600260009054906101000a900473ffffffffffffffffffffffffffffffffffffffff1681565b60015481565b60008060008381526020019081526020016000209050806002015434146108e6576040517f08c379a00000000000000000000000000000000000000000000000000000000081526004016108dd906113a2565b60405180910390fd5b8060030160009054906101000a900473ffffffffffffffffffffffffffffffffffffffff1673ffffffffffffffffffffffffffffffffffffffff166108fc349081150290604051600060405180830381858888f19350505050158015610950573d6000803e3d6000fd5b505050565b6000604051905090565b600080fd5b600080fd5b600080fd5b600080fd5b6000601f19601f8301169050919050565b7f4e487b7100000000000000000000000000000000000000000000000000000000600052604160045260246000fd5b6109bc82610973565b810181811067ffffffffffffffff821117156109db576109da610984565b5b80604052505050565b60006109ee610955565b90506109fa82826109b3565b919050565b600067ffffffffffffffff821115610a1a57610a19610984565b5b610a2382610973565b9050602081019050919050565b82818337600083830152505050565b6000610a52610a4d846109ff565b6109e4565b905082815260208101848484011115610a6e57610a6d61096e565b5b610a79848285610a30565b509392505050565b600082601f830112610a9657610a95610969565b5b8135610aa6848260208601610a3f565b91505092915050565b6000819050919050565b610ac281610aaf565b8114610acd57600080fd5b50565b600081359050610adf81610ab9565b92915050565b600080600060608486031215610afe57610afd61095f565b5b600084013567ffffffffffffffff811115610b1c57610b1b610964565b5b610b2886828701610a81565b935050602084013567ffffffffffffffff811115610b4957610b48610964565b5b610b5586828701610a81565b9250506040610b6686828701610ad0565b9150509250925092565b600060ff82169050919050565b610b8681610b70565b8114610b9157600080fd5b50565b600081359050610ba381610b7d565b92915050565b60008060408385031215610bc057610bbf61095f565b5b6000610bce85828601610ad0565b9250506020610bdf85828601610b94565b9150509250929050565b600073ffffffffffffffffffffffffffffffffffffffff82169050919050565b6000610c1482610be9565b9050919050565b610c2481610c09565b8114610c2f57600080fd5b50565b600081359050610c4181610c1b565b92915050565b600060208284031215610c5d57610c5c61095f565b5b6000610c6b84828501610c32565b91505092915050565b610c7d81610aaf565b82525050565b6000602082019050610c986000830184610c74565b92915050565b600060208284031215610cb457610cb361095f565b5b6000610cc284828501610ad0565b91505092915050565b600081519050919050565b600082825260208201905092915050565b60005b83811015610d05578082015181840152602081019050610cea565b60008484015250505050565b6000610d1c82610ccb565b610d268185610cd6565b9350610d36818560208601610ce7565b610d3f81610973565b840191505092915050565b610d5381610c09565b82525050565b610d6281610b70565b82525050565b600060a0820190508181036000830152610d828188610d11565b90508181036020830152610d968187610d11565b9050610da56040830186610c74565b610db26060830185610d4a565b610dbf6080830184610d59565b9695505050505050565b600060c0820190508181036000830152610de38189610d11565b90508181036020830152610df78188610d11565b9050610e066040830187610c74565b610e136060830186610d4a565b610e206080830185610d59565b610e2d60a0830184610c74565b979650505050505050565b6000602082019050610e4d6000830184610d4a565b92915050565b7f4e487b7100000000000000000000000000000000000000000000000000000000600052601160045260246000fd5b6000610e8d82610aaf565b91507fffffffffffffffffffffffffffffffffffffffffffffffffffffffffffffffff8203610ebf57610ebe610e53565b5b600182019050919050565b7f4e487b7100000000000000000000000000000000000000000000000000000000600052602260045260246000fd5b60006002820490506001821680610f1157607f821691505b602082108103610f2457610f23610eca565b5b50919050565b60008190508160005260206000209050919050565b60006020601f8301049050919050565b600082821b905092915050565b600060088302610f8c7fffffffffffffffffffffffffffffffffffffffffffffffffffffffffffffffff82610f4f565b610f968683610f4f565b95508019841693508086168417925050509392505050565b6000819050919050565b6000610fd3610fce610fc984610aaf565b610fae565b610aaf565b9050919050565b6000819050919050565b610fed83610fb8565b611001610ff982610fda565b848454610f5c565b825550505050565b600090565b611016611009565b611021818484610fe4565b505050565b5b818110156110455761103a60008261100e565b600181019050611027565b5050565b601f82111561108a5761105b81610f2a565b61106484610f3f565b81016020851015611073578190505b61108761107f85610f3f565b830182611026565b50505b505050565b600082821c905092915050565b60006110ad6000198460080261108f565b1980831691505092915050565b60006110c6838361109c565b9150826002028217905092915050565b6110df82610ccb565b67ffffffffffffffff8111156110f8576110f7610984565b5b6111028254610ef9565b61110d828285611049565b600060209050601f831160018114611140576000841561112e578287015190505b61113885826110ba565b8655506111a0565b601f19841661114e86610f2a565b60005b8281101561117657848901518255600182019150602085019450602081019050611151565b86831015611193578489015161118f601f89168261109c565b8355505b6001600288020188555050505b505050505050565b7f526174696e67206d757374206265206265747765656e203120616e6420350000600082015250565b60006111de601e83610cd6565b91506111e9826111a8565b602082019050919050565b6000602082019050818103600083015261120d816111d1565b9050919050565b600061121f82610aaf565b915061122a83610aaf565b925082820190508082111561124257611241610e53565b5b92915050565b600061125382610aaf565b915061125e83610aaf565b925082820261126c81610aaf565b9150828204841483151761128357611282610e53565b5b5092915050565b7f4e487b7100000000000000000000000000000000000000000000000000000000600052601260045260246000fd5b60006112c482610aaf565b91506112cf83610aaf565b9250826112df576112de61128a565b5b828204905092915050565b7f4e6f7420636f6e7472616374206f776e65720000000000000000000000000000600082015250565b6000611320601283610cd6565b915061132b826112ea565b602082019050919050565b6000602082019050818103600083015261134f81611313565b9050919050565b7f496e636f7272656374207061796d656e7420616d6f756e740000000000000000600082015250565b600061138c601883610cd6565b915061139782611356565b602082019050919050565b600060208201905081810360008301526113bb8161137f565b905091905056fea2646970667358221220f3c92a83cb17588f43c93b7ba798702939622e93c19b7fd7fe0f77649a1cf3bc64736f6c634300081c0033",
  "linkReferences": {},
  "deployedLinkReferences": {}
}